{
  "transactions": [
    {
      "hash": "0x653bbaac8e8a8e7299675ae4fddec6c67f81c14d158ff370f78e2bf3ec6d100a",
      "transactionType": "CALL",
      "contractName": null,
      "contractAddress": "0x972d3dc804ec7cabeab6d394b9a9f4e6c313dda7",
      "function": "approve(address,uint256)",
      "arguments": [
        "0x07C4fA447a96f257b29596ea3ae0791d06D30738",
        "1000000000000000000000"
      ],
      "transaction": {
        "from": "0xe689f793882a9fbf80b26ee16f530076e0130311",
        "to": "0x972d3dc804ec7cabeab6d394b9a9f4e6c313dda7",
        "gas": "0x10d47",
        "value": "0x0",
        "input": "0x095ea7b300000000000000000000000007c4fa447a96f257b29596ea3ae0791d06d3073800000000000000000000000000000000000000000000003635c9adc5dea00000",
        "nonce": "0x2f",
        "chainId": "0xa4b1"
      },
      "additionalContracts": [],
      "isFixedGasLimit": false
    },
    {
      "hash": "0xc66756f0673b31c0641934b1fd85fdc2b831eb449e1ba3d0ba3eb50eda419a3b",
      "transactionType": "CALL",
      "contractName": null,
      "contractAddress": "0xb37790829b57719217b19312db23202c58b6ed61",
      "function": "approve(address,uint256)",
      "arguments": [
        "0x07C4fA447a96f257b29596ea3ae0791d06D30738",
        "1000000000000000000000"
      ],
      "transaction": {
        "from": "0xe689f793882a9fbf80b26ee16f530076e0130311",
        "to": "0xb37790829b57719217b19312db23202c58b6ed61",
        "gas": "0xec80",
        "value": "0x0",
        "input": "0x095ea7b300000000000000000000000007c4fa447a96f257b29596ea3ae0791d06d3073800000000000000000000000000000000000000000000003635c9adc5dea00000",
        "nonce": "0x30",
        "chainId": "0xa4b1"
      },
      "additionalContracts": [],
      "isFixedGasLimit": false
    },
    {
      "hash": "0x558c30624c8e71f18ee45cf1ad3d5a46d9eaeeb66e523d5ed35c94c94f71a854",
      "transactionType": "CALL",
      "contractName": null,
      "contractAddress": "0x07c4fa447a96f257b29596ea3ae0791d06d30738",
      "function": "add_liquidity(uint256[],uint256)",
      "arguments": [
        "[1000000000000000000000, 1000000000000000000000]",
        "0"
      ],
      "transaction": {
        "from": "0xe689f793882a9fbf80b26ee16f530076e0130311",
        "to": "0x07c4fa447a96f257b29596ea3ae0791d06d30738",
        "gas": "0x5932d",
        "value": "0x0",
        "input": "0xb72df5de00000000000000000000000000000000000000000000000000000000000000400000000000000000000000000000000000000000000000000000000000000000000000000000000000000000000000000000000000000000000000000000000200000000000000000000000000000000000000000000003635c9adc5dea0000000000000000000000000000000000000000000000000003635c9adc5dea00000",
        "nonce": "0x31",
        "chainId": "0xa4b1"
      },
      "additionalContracts": [],
      "isFixedGasLimit": false
    }
  ],
  "receipts": [
    {
      "status": "0x1",
      "cumulativeGasUsed": "0xcbe1",
      "logs": [
        {
          "address": "0x972d3dc804ec7cabeab6d394b9a9f4e6c313dda7",
          "topics": [
            "0x8c5be1e5ebec7d5bd14f71427d1e84f3dd0314c0f7b2291e5b200ac8c7c3b925",
            "0x000000000000000000000000e689f793882a9fbf80b26ee16f530076e0130311",
            "0x00000000000000000000000007c4fa447a96f257b29596ea3ae0791d06d30738"
          ],
          "data": "0x00000000000000000000000000000000000000000000003635c9adc5dea00000",
          "blockHash": "0xb7a38491cbe7360e07c98e311a9e49f4ced3cf7bd4f78033edb36b91f2d170eb",
          "blockNumber": "0x1945353d",
          "blockTimestamp": "0x6971d5de",
          "transactionHash": "0x653bbaac8e8a8e7299675ae4fddec6c67f81c14d158ff370f78e2bf3ec6d100a",
          "transactionIndex": "0x1",
          "logIndex": "0x0",
          "removed": false
        }
      ],
      "logsBloom": "0x00000000000000000000000000000000000000000000000000000000000000000000000000000000000000000000000000000000000000000000000000200000000000800000000040000000000800004000000000000000000000000000000000004000000000000000000000000000000000000000000000000000000000000000000000000000000000100000000000000000000000000000000000000000020000000000000000000000000000000000000000000000000000000000000000000020000000000040000000000000000000000000000000000080000000000010000000000000000000000000000000000000000000000000000000000000",
      "type": "0x2",
      "transactionHash": "0x653bbaac8e8a8e7299675ae4fddec6c67f81c14d158ff370f78e2bf3ec6d100a",
      "transactionIndex": "0x1",
      "blockHash": "0xb7a38491cbe7360e07c98e311a9e49f4ced3cf7bd4f78033edb36b91f2d170eb",
      "blockNumber": "0x1945353d",
      "gasUsed": "0xcbe1",
      "effectiveGasPrice": "0x1312d00",
      "from": "0xe689f793882a9fbf80b26ee16f530076e0130311",
      "to": "0x972d3dc804ec7cabeab6d394b9a9f4e6c313dda7",
      "contractAddress": null,
      "gasUsedForL1": "0xb2",
      "l1BlockNumber": "0x1729e9e",
      "timeboosted": false
    },
    {
      "status": "0x1",
      "cumulativeGasUsed": "0xb442",
      "logs": [
        {
          "address": "0xb37790829b57719217b19312db23202c58b6ed61",
          "topics": [
            "0x8c5be1e5ebec7d5bd14f71427d1e84f3dd0314c0f7b2291e5b200ac8c7c3b925",
            "0x000000000000000000000000e689f793882a9fbf80b26ee16f530076e0130311",
            "0x00000000000000000000000007c4fa447a96f257b29596ea3ae0791d06d30738"
          ],
          "data": "0x00000000000000000000000000000000000000000000003635c9adc5dea00000",
          "blockHash": "0x4c75eb1f1fbcd2bc3c4d0550568c33a5e6c5230128d2ad0d61c5fcbaa570dbbe",
          "blockNumber": "0x19453549",
          "blockTimestamp": "0x6971d5e1",
          "transactionHash": "0xc66756f0673b31c0641934b1fd85fdc2b831eb449e1ba3d0ba3eb50eda419a3b",
          "transactionIndex": "0x1",
          "logIndex": "0x0",
          "removed": false
        }
      ],
      "logsBloom": "0x00000000000000000000000000000000000000000000000000000002000000000000000000000000000000000000000000000000000000000000000000200000000000800001000040000000000800000000000000000000000000000000000000004000000000000000000000000000000000000000000000000000000000000000000000000000000000100000000000000000000000000000000000000000020000000000000020000000000000000000000000000000000000000000000000000000000000000000000000000000000000000000000000000080000000000010000000000000000000000000000000000000000000000000000000000000",
      "type": "0x2",
      "transactionHash": "0xc66756f0673b31c0641934b1fd85fdc2b831eb449e1ba3d0ba3eb50eda419a3b",
      "transactionIndex": "0x1",
      "blockHash": "0x4c75eb1f1fbcd2bc3c4d0550568c33a5e6c5230128d2ad0d61c5fcbaa570dbbe",
      "blockNumber": "0x19453549",
      "gasUsed": "0xb442",
      "effectiveGasPrice": "0x1312d00",
      "from": "0xe689f793882a9fbf80b26ee16f530076e0130311",
      "to": "0xb37790829b57719217b19312db23202c58b6ed61",
      "contractAddress": null,
      "gasUsedForL1": "0xb1",
      "l1BlockNumber": "0x1729e9e",
      "timeboosted": false
    },
    {
      "status": "0x1",
      "cumulativeGasUsed": "0x40a28",
      "logs": [
        {
          "address": "0x972d3dc804ec7cabeab6d394b9a9f4e6c313dda7",
          "topics": [
            "0xddf252ad1be2c89b69c2b068fc378daa952ba7f163c4a11628f55a4df523b3ef",
            "0x000000000000000000000000e689f793882a9fbf80b26ee16f530076e0130311",
            "0x00000000000000000000000007c4fa447a96f257b29596ea3ae0791d06d30738"
          ],
          "data": "0x00000000000000000000000000000000000000000000003635c9adc5dea00000",
          "blockHash": "0x48cfee985d83f17b40775c64f5bdcb4ead9505499e0c9ee32216fdf73950eeb2",
          "blockNumber": "0x19453555",
          "blockTimestamp": "0x6971d5e4",
          "transactionHash": "0x558c30624c8e71f18ee45cf1ad3d5a46d9eaeeb66e523d5ed35c94c94f71a854",
          "transactionIndex": "0x1",
          "logIndex": "0x0",
          "removed": false
        },
        {
          "address": "0xb37790829b57719217b19312db23202c58b6ed61",
          "topics": [
            "0xddf252ad1be2c89b69c2b068fc378daa952ba7f163c4a11628f55a4df523b3ef",
            "0x000000000000000000000000e689f793882a9fbf80b26ee16f530076e0130311",
            "0x00000000000000000000000007c4fa447a96f257b29596ea3ae0791d06d30738"
          ],
          "data": "0x00000000000000000000000000000000000000000000003635c9adc5dea00000",
          "blockHash": "0x48cfee985d83f17b40775c64f5bdcb4ead9505499e0c9ee32216fdf73950eeb2",
          "blockNumber": "0x19453555",
          "blockTimestamp": "0x6971d5e4",
          "transactionHash": "0x558c30624c8e71f18ee45cf1ad3d5a46d9eaeeb66e523d5ed35c94c94f71a854",
          "transactionIndex": "0x1",
          "logIndex": "0x1",
          "removed": false
        },
        {
          "address": "0x07c4fa447a96f257b29596ea3ae0791d06d30738",
          "topics": [
            "0xddf252ad1be2c89b69c2b068fc378daa952ba7f163c4a11628f55a4df523b3ef",
            "0x0000000000000000000000000000000000000000000000000000000000000000",
            "0x000000000000000000000000e689f793882a9fbf80b26ee16f530076e0130311"
          ],
          "data": "0x00000000000000000000000000000000000000000000006c6b935b8bbd400000",
          "blockHash": "0x48cfee985d83f17b40775c64f5bdcb4ead9505499e0c9ee32216fdf73950eeb2",
          "blockNumber": "0x19453555",
          "blockTimestamp": "0x6971d5e4",
          "transactionHash": "0x558c30624c8e71f18ee45cf1ad3d5a46d9eaeeb66e523d5ed35c94c94f71a854",
          "transactionIndex": "0x1",
          "logIndex": "0x2",
          "removed": false
        },
        {
          "address": "0x07c4fa447a96f257b29596ea3ae0791d06d30738",
          "topics": [
            "0x189c623b666b1b45b83d7178f39b8c087cb09774317ca2f53c2d3c3726f222a2",
            "0x000000000000000000000000e689f793882a9fbf80b26ee16f530076e0130311"
          ],
          "data": "0x000000000000000000000000000000000000000000000000000000000000008000000000000000000000000000000000000000000000000000000000000000e000000000000000000000000000000000000000000000006c6b935b8bbd40000000000000000000000000000000000000000000000000006c6b935b8bbd400000000000000000000000000000000000000000000000000000000000000000000200000000000000000000000000000000000000000000003635c9adc5dea0000000000000000000000000000000000000000000000000003635c9adc5dea000000000000000000000000000000000000000000000000000000000000000000000",
          "blockHash": "0x48cfee985d83f17b40775c64f5bdcb4ead9505499e0c9ee32216fdf73950eeb2",
          "blockNumber": "0x19453555",
          "blockTimestamp": "0x6971d5e4",
          "transactionHash": "0x558c30624c8e71f18ee45cf1ad3d5a46d9eaeeb66e523d5ed35c94c94f71a854",
          "transactionIndex": "0x1",
          "logIndex": "0x3",
          "removed": false
        }
      ],
      "logsBloom": "0x00000000000000000000000000000000000000000000000000000002000000000000000000000000000000000000000000000000000000000000000000000000000000800009000040000008000800004000000000000000002000000000000000004000020000000000010000000800000001000000000000000010000000000000002000000000000000100000000000000000000000000000000000000000000000000000000020000000000000000000000000000000000000000000000000000022000000000040000000000000000000000000000000000080000020000000000080000000000000000000000000000000000000000000000000000000",
      "type": "0x2",
      "transactionHash": "0x558c30624c8e71f18ee45cf1ad3d5a46d9eaeeb66e523d5ed35c94c94f71a854",
      "transactionIndex": "0x1",
      "blockHash": "0x48cfee985d83f17b40775c64f5bdcb4ead9505499e0c9ee32216fdf73950eeb2",
      "blockNumber": "0x19453555",
      "gasUsed": "0x40a28",
      "effectiveGasPrice": "0x1312d00",
      "from": "0xe689f793882a9fbf80b26ee16f530076e0130311",
      "to": "0x07c4fa447a96f257b29596ea3ae0791d06d30738",
      "contractAddress": null,
      "gasUsedForL1": "0xe8",
      "l1BlockNumber": "0x1729e9e",
      "timeboosted": false
    }
  ],
  "libraries": [],
  "pending": [],
  "returns": {},
  "timestamp": 1769068005338,
  "chain": 42161,
  "commit": "6ccce14"
}