{
  "transactions": [
    {
      "hash": "0xf8aeeb563d4db6cd4a3676e0763f4be992fb12ed0d962ac991c0e9ae2a5298f4",
      "transactionType": "CALL",
      "contractName": null,
      "contractAddress": "0x911c583b346a43b7d4176ae135911c451e8c9203",
      "function": "requestMint((address,uint48,uint48,uint48,uint208),bytes)",
      "arguments": [
        "(0xe689F793882A9FbF80B26EE16f530076E0130311, 0, 281474976710655, 0, 1000000000000000000000)",
        "0x9060fa843f7dbd803acffc543816752353068212be3fdeae61cbd595a28aeeb54d68f6cc4663753af262fc42f668af514b5160b1b7a895ef4d3b259ea5ce98601b"
      ],
      "transaction": {
        "from": "0xe689f793882a9fbf80b26ee16f530076e0130311",
        "to": "0x911c583b346a43b7d4176ae135911c451e8c9203",
        "gas": "0x48406",
        "value": "0x0",
        "input": "0xeecd570d000000000000000000000000e689f793882a9fbf80b26ee16f530076e013031100000000000000000000000000000000000000000000000000000000000000000000000000000000000000000000000000000000000000000000ffffffffffff000000000000000000000000000000000000000000000000000000000000000000000000000000000000000000000000000000000000003635c9adc5dea0000000000000000000000000000000000000000000000000000000000000000000c000000000000000000000000000000000000000000000000000000000000000419060fa843f7dbd803acffc543816752353068212be3fdeae61cbd595a28aeeb54d68f6cc4663753af262fc42f668af514b5160b1b7a895ef4d3b259ea5ce98601b00000000000000000000000000000000000000000000000000000000000000",
        "nonce": "0x2c",
        "chainId": "0xa4b1"
      },
      "additionalContracts": [],
      "isFixedGasLimit": false
    }
  ],
  "receipts": [
    {
      "status": "0x1",
      "cumulativeGasUsed": "0x68a1d",
      "logs": [
        {
          "address": "0xedd1325589d8fc8754c046c37486d0f49262fb19",
          "topics": [
            "0x82a2da5dee54ea8021c6545b4444620291e07ee83be6dd57edb175062715f3b4",
            "0xc700fbff94ccfb94b7abe857e4abce44ff6af7b7a3c93f27957b9fe6d1fcdb79",
            "0x0000000000000000000000000000000000000000000000000000000000000001"
          ],
          "data": "0x000000000000000000000000000000000000000000000000000000006971cc08000000000000000000000000911c583b346a43b7d4176ae135911c451e8c9203000000000000000000000000972d3dc804ec7cabeab6d394b9a9f4e6c313dda70000000000000000000000000000000000000000000000000000000000000080000000000000000000000000000000000000000000000000000000000000004540c10f19000000000000000000000000e689f793882a9fbf80b26ee16f530076e013031100000000000000000000000000000000000000000000003635c9adc5dea0000000000000000000000000000000000000000000000000000000000000",
          "blockHash": "0x9279bd21477f69e77572c4da693eb903190cbaf0688d16a8e5adcb9570479dba",
          "blockNumber": "0x19450dd9",
          "blockTimestamp": "0x6971cc03",
          "transactionHash": "0xf8aeeb563d4db6cd4a3676e0763f4be992fb12ed0d962ac991c0e9ae2a5298f4",
          "transactionIndex": "0x4",
          "logIndex": "0x2",
          "removed": false
        },
        {
          "address": "0x911c583b346a43b7d4176ae135911c451e8c9203",
          "topics": [
            "0xce58caeab2b93756a210bc74de3874d9375dd7dd4db68385869f71d431c6051e",
            "0xc700fbff94ccfb94b7abe857e4abce44ff6af7b7a3c93f27957b9fe6d1fcdb79",
            "0x000000000000000000000000e689f793882a9fbf80b26ee16f530076e0130311"
          ],
          "data": "0x00000000000000000000000000000000000000000000003635c9adc5dea00000000000000000000000000000000000000000000000000000000000000000000000000000000000000000000000000000000000000000000000000000000000000000000000000000000000000000000000000000000000000000ffffffffffff",
          "blockHash": "0x9279bd21477f69e77572c4da693eb903190cbaf0688d16a8e5adcb9570479dba",
          "blockNumber": "0x19450dd9",
          "blockTimestamp": "0x6971cc03",
          "transactionHash": "0xf8aeeb563d4db6cd4a3676e0763f4be992fb12ed0d962ac991c0e9ae2a5298f4",
          "transactionIndex": "0x4",
          "logIndex": "0x3",
          "removed": false
        }
      ],
      "logsBloom": "0x00000000000000002000000000000000000800000000000000000000000000000000000000000000000000000000000000000000000000000000000000040000000000000000000040000200000802800000000000040000002000000000000000004000000000000000000004000000000000000000000000000000000000000000000000000000000000000000000040000000000000000000000000000000000000000000000000000008000000000000000001000020000000000000000000000000000000000000000000000000000000000000000000000001000040000000000000000000000000000000000010200000000000000000000000000000",
      "type": "0x2",
      "transactionHash": "0xf8aeeb563d4db6cd4a3676e0763f4be992fb12ed0d962ac991c0e9ae2a5298f4",
      "transactionIndex": "0x4",
      "blockHash": "0x9279bd21477f69e77572c4da693eb903190cbaf0688d16a8e5adcb9570479dba",
      "blockNumber": "0x19450dd9",
      "gasUsed": "0x36d7a",
      "effectiveGasPrice": "0x131c940",
      "from": "0xe689f793882a9fbf80b26ee16f530076e0130311",
      "to": "0x911c583b346a43b7d4176ae135911c451e8c9203",
      "contractAddress": null,
      "gasUsedForL1": "0x148",
      "l1BlockNumber": "0x1729dcd",
      "timeboosted": false
    }
  ],
  "libraries": [],
  "pending": [],
  "returns": {},
  "timestamp": 1769065476049,
  "chain": 42161,
  "commit": "4c39893"
}