{
  "transactions": [
    {
      "hash": null,
      "transactionType": "CALL",
      "contractName": null,
      "contractAddress": "0x911c583b346a43b7d4176ae135911c451e8c9203",
      "function": "requestMint((address,uint48,uint48,uint48,uint208),bytes)",
      "arguments": [
        "(0xe689F793882A9FbF80B26EE16f530076E0130311, 0, 281474976710655, 0, 1000000000000000000000)",
        "0x9060fa843f7dbd803acffc543816752353068212be3fdeae61cbd595a28aeeb54d68f6cc4663753af262fc42f668af514b5160b1b7a895ef4d3b259ea5ce98601b"
      ],
      "transaction": {
        "from": "0xe689f793882a9fbf80b26ee16f530076e0130311",
        "to": "0x911c583b346a43b7d4176ae135911c451e8c9203",
        "gas": "0x48406",
        "value": "0x0",
        "input": "0xeecd570d000000000000000000000000e689f793882a9fbf80b26ee16f530076e013031100000000000000000000000000000000000000000000000000000000000000000000000000000000000000000000000000000000000000000000ffffffffffff000000000000000000000000000000000000000000000000000000000000000000000000000000000000000000000000000000000000003635c9adc5dea0000000000000000000000000000000000000000000000000000000000000000000c000000000000000000000000000000000000000000000000000000000000000419060fa843f7dbd803acffc543816752353068212be3fdeae61cbd595a28aeeb54d68f6cc4663753af262fc42f668af514b5160b1b7a895ef4d3b259ea5ce98601b00000000000000000000000000000000000000000000000000000000000000",
        "nonce": "0x2c",
        "chainId": "0xa4b1"
      },
      "additionalContracts": [],
      "isFixedGasLimit": false
    }
  ],
  "receipts": [],
  "libraries": [],
  "pending": [],
  "returns": {},
  "timestamp": 1769065428482,
  "chain": 42161,
  "commit": "4c39893"
}