{
  "transactions": [
    {
      "hash": "0x205f569530364ca621b4517f73c136977008f438776d3ccad1353fe152ec3d2d",
      "transactionType": "CALL",
      "contractName": null,
      "contractAddress": "0xb37790829b57719217b19312db23202c58b6ed61",
      "function": "mint(address,uint256)",
      "arguments": [
        "0xe689F793882A9FbF80B26EE16f530076E0130311",
        "1000000000000000000000"
      ],
      "transaction": {
        "from": "0xe689f793882a9fbf80b26ee16f530076e0130311",
        "to": "0xb37790829b57719217b19312db23202c58b6ed61",
        "gas": "0x15ec0",
        "value": "0x0",
        "input": "0x40c10f19000000000000000000000000e689f793882a9fbf80b26ee16f530076e013031100000000000000000000000000000000000000000000003635c9adc5dea00000",
        "nonce": "0x2e",
        "chainId": "0xa4b1"
      },
      "additionalContracts": [],
      "isFixedGasLimit": false
    }
  ],
  "receipts": [
    {
      "status": "0x1",
      "cumulativeGasUsed": "0x10a61",
      "logs": [
        {
          "address": "0xb37790829b57719217b19312db23202c58b6ed61",
          "topics": [
            "0xddf252ad1be2c89b69c2b068fc378daa952ba7f163c4a11628f55a4df523b3ef",
            "0x0000000000000000000000000000000000000000000000000000000000000000",
            "0x000000000000000000000000e689f793882a9fbf80b26ee16f530076e0130311"
          ],
          "data": "0x00000000000000000000000000000000000000000000003635c9adc5dea00000",
          "blockHash": "0x3ca6478e78b741bdf3389ace92a9b5fb3109f1dd6a4cd65cd723987f7a503f3e",
          "blockNumber": "0x1945146d",
          "blockTimestamp": "0x6971cda9",
          "transactionHash": "0x205f569530364ca621b4517f73c136977008f438776d3ccad1353fe152ec3d2d",
          "transactionIndex": "0x1",
          "logIndex": "0x0",
          "removed": false
        }
      ],
      "logsBloom": "0x00000000000000000000000000000000000000000000000000000002000000000000000000000000000000000000000000000000000000000000000000000000000000000001000040000008000800000000000000000000000000000000000000004000020000000000000000000800000000000000000000000010000000000000000000000000000000000000000000000000000000000000000000000000000000000000000020000000000000000000000000000000000000000000000000000002000000000000000000000000000000000000000000000000000020000000000000000000000000000000000000000000000000000000000000000000",
      "type": "0x2",
      "transactionHash": "0x205f569530364ca621b4517f73c136977008f438776d3ccad1353fe152ec3d2d",
      "transactionIndex": "0x1",
      "blockHash": "0x3ca6478e78b741bdf3389ace92a9b5fb3109f1dd6a4cd65cd723987f7a503f3e",
      "blockNumber": "0x1945146d",
      "gasUsed": "0x10a61",
      "effectiveGasPrice": "0x131fff0",
      "from": "0xe689f793882a9fbf80b26ee16f530076e0130311",
      "to": "0xb37790829b57719217b19312db23202c58b6ed61",
      "contractAddress": null,
      "gasUsedForL1": "0x60",
      "l1BlockNumber": "0x1729def",
      "timeboosted": false
    }
  ],
  "libraries": [],
  "pending": [],
  "returns": {},
  "timestamp": 1769065898046,
  "chain": 42161,
  "commit": "301c9cc"
}