{
  "transactions": [
    {
      "hash": "0x8dce6fbed8c9cec6aac072f92e76a4b8c3a6d220275f0d9aba89d2105d537c4a",
      "transactionType": "CREATE",
      "contractName": "LinearVestV0",
      "contractAddress": "0x0811669a91aeac562d11b9219f1eebbcfecf8187",
      "function": null,
      "arguments": [
        "0x972d3Dc804ec7CABEAb6D394b9a9f4E6c313dda7",
        "0xedd1325589d8fc8754C046C37486D0f49262Fb19",
        "0xB4134E73fA51a9214a945f6fE3003d1a056AE6d8",
        "86400"
      ],
      "transaction": {
        "from": "0xe689f793882a9fbf80b26ee16f530076e0130311",
        "gas": "0xc3b67",
        "value": "0x0",
        "input": "0x60a0346101ed57601f610acc38819003918201601f19168301916001600160401b038311848410176101f1578084926080946040528339810103126101ed5761004781610205565b61005360208301610205565b91606061006260408301610205565b9101515f80546001600160a01b0319166001600160a01b039095169485179055604051848152909392907f2f658b440c35314f52658ea8a740e05b284cdc84dc9ae01e891f21b8933e7cad90602090a16001600160a01b03169182156101bf571561018d576001600160a01b031690811561015957821561011d57608052600480546001600160a01b0319169190911790556003556040516108b2908161021a82396080518181816101c2015281816104aa01526107c40152f35b60848360405190631533de4360e01b825260406004830152600d60448301526c1d995cdd1a5b99d4195c9a5bd9609a1b60648301526024820152fd5b604051630b0f5aa160e11b815260206004820152600b60248201526a62656e656669636961727960a81b6044820152606490fd5b604051630b0f5aa160e11b8152602060048201526009602482015268617574686f7269747960b81b6044820152606490fd5b604051630b0f5aa160e11b8152602060048201526005602482015264185cdcd95d60da1b6044820152606490fd5b5f80fd5b634e487b7160e01b5f52604160045260245ffd5b51906001600160a01b03821682036101ed5756fe6080806040526004361015610012575f80fd5b5f3560e01c908162728f76146105bf575080631c31f7101461050157806338af3eed146104d957806338d52e0f1461049557806340bee0ed146103fc57806344b1231f146103e25780635973453a146103905780637313ee5a146103735780637a9e5e4b146102d35780637cf4c01b1461016d5780638fb360371461012a578063bf7e214f14610103578063c3457c1c146100e65763d950975a146100b5575f80fd5b346100e2575f3660031901126100e25760206100da6100d26105d9565b600154610628565b604051908152f35b5f80fd5b346100e2575f3660031901126100e2576020600254604051908152f35b346100e2575f3660031901126100e2575f546040516001600160a01b039091168152602090f35b346100e2575f3660031901126100e2575f5460a01c60ff1615610165576020638fb3603760e01b5b6040516001600160e01b03199091168152f35b60205f610152565b346100e25760203660031901126100e25760043561018b363361066b565b801561029e576101996105d9565b6101a581600154610628565b9082820180921161028a576101c091600155426002556107bc565b7f000000000000000000000000000000000000000000000000000000000000000090604051916323b872dd60e01b5f5233600452306024528160445260205f60648180855af160015f511481161561026b575b836040525f6060521561024b575081527ff4349e7e347f0f29eadd49905d352751a7c97e545c924e7e399e4bb0570e478760203392a2005b635274afe760e01b5f9081526001600160a01b0391909116600452602490fd5b600181151661028157813b15153d151616610213565b833d5f823e3d90fd5b634e487b7160e01b5f52601160045260245ffd5b60849060405190631533de4360e01b8252604060048301526006604483015265185b5bdd5b9d60d21b60648301526024820152fd5b346100e25760203660031901126100e2576004356001600160a01b038116908181036100e2575f54906001600160a01b0382163303610361573b1561034e576001600160a01b03191681175f556040519081527f2f658b440c35314f52658ea8a740e05b284cdc84dc9ae01e891f21b8933e7cad90602090a1005b506361798f2f60e11b5f5260045260245ffd5b62d1953b60e31b5f523360045260245ffd5b346100e2575f3660031901126100e2576020600354604051908152f35b346100e2575f3660031901126100e2576004546001600160a01b031633036103d3576103d16103bd6105d9565b6103c981600154610628565b6001556107bc565b005b6325cdf54f60e21b5f5260045ffd5b346100e2575f3660031901126100e25760206100da6105d9565b346100e25760203660031901126100e25760043561041a363361066b565b80156104595760407f2543ef20d7e1e2939d7ba6a2d4f2bc50e3098ccfd274aafcb3f263dc3585f2d791600354908060035582519182526020820152a1005b60849060405190631533de4360e01b825260406004830152600d60448301526c1d995cdd1a5b99d4195c9a5bd9609a1b60648301526024820152fd5b346100e2575f3660031901126100e2576040517f00000000000000000000000000000000000000000000000000000000000000006001600160a01b03168152602090f35b346100e2575f3660031901126100e2576004546040516001600160a01b039091168152602090f35b346100e25760203660031901126100e2576004356001600160a01b038116908190036100e257610531363361066b565b801561058b5760407fe72eaf6addaa195f3c83095031dd08f3a96808dcf047babed1fe4e4f69d6c6229160045490806bffffffffffffffffffffffff60a01b83161760045582519160018060a01b031682526020820152a1005b604051630b0f5aa160e11b815260206004820152600b60248201526a62656e656669636961727960a81b6044820152606490fd5b346100e2575f3660031901126100e2576020906001548152f35b600154801561062357600254420390600354918281101561061d578082029182040361028a578115610609570490565b634e487b7160e01b5f52601260045260245ffd5b50905090565b505f90565b9190820391821161028a57565b90601f8019910116810190811067ffffffffffffffff82111761065757604052565b634e487b7160e01b5f52604160045260245ffd5b5f805490926001600160a01b0382169291600482106100e2575f5f9060405f815196602088019063b700961360e01b825260018060a01b03169788602482015230604482015263ffffffff60e01b8335166064820152606481526106d0608482610635565b828052826020525190895afa6107a9575b156106ef575b505050505050565b63ffffffff16156107975760ff60a01b1916600160a01b175f55823b156100e2576064925f9283604051958680958194634a63ebf760e11b83526004830152604060248301528060448301528084848401378181018301849052601f01601f191681010301925af1801561078c57610779575b50805460ff60a01b191690555f80808080806106e7565b61078591505f90610635565b5f5f610762565b6040513d5f823e3d90fd5b8262d1953b60e31b5f5260045260245ffd5b50505f516020518060201c1502906106e1565b8015610879577f000000000000000000000000000000000000000000000000000000000000000060018060a01b0360045416906040519163a9059cbb60e01b5f526004528260245260205f60448180855af160015f511481161561085a575b826040521561024b575060207f29ee22ce2103f17737a980405123394a2e5be946614616773adfdb7c9fa7727e9160018060a01b0360045416938152a2565b600181151661087057813b15153d15161661081b565b823d5f823e3d90fd5b5056fea2646970667358221220d5928637dfd82c2c0b7f78d84cb39365cb925306bec9c7c206fcf4e4287c8d0064736f6c634300081e0033000000000000000000000000972d3dc804ec7cabeab6d394b9a9f4e6c313dda7000000000000000000000000edd1325589d8fc8754c046c37486d0f49262fb19000000000000000000000000b4134e73fa51a9214a945f6fe3003d1a056ae6d80000000000000000000000000000000000000000000000000000000000015180",
        "nonce": "0x18",
        "chainId": "0xa4b1"
      },
      "additionalContracts": [],
      "isFixedGasLimit": false
    },
    {
      "hash": "0x0fa1765c7cac4ecb6f63e59b673523fd94c477241b66998c723a2ef2199c6063",
      "transactionType": "CREATE",
      "contractName": "YieldDistributor",
      "contractAddress": "0x5ee929a664dc1075628838e0fbb34451aacdef9e",
      "function": null,
      "arguments": [
        "0x972d3Dc804ec7CABEAb6D394b9a9f4E6c313dda7",
        "0xedd1325589d8fc8754C046C37486D0f49262Fb19",
        "0x0811669A91AeaC562D11B9219f1eEBbCfEcf8187"
      ],
      "transaction": {
        "from": "0xe689f793882a9fbf80b26ee16f530076e0130311",
        "gas": "0xcc8f0",
        "value": "0x0",
        "input": "0x60a03461019e57601f610b6838819003918201601f19168301916001600160401b038311848410176101a25780849260609460405283398101031261019e57610047816101b6565b906100606040610059602084016101b6565b92016101b6565b5f80546001600160a01b0319166001600160a01b039093169283179055604051828152919290917f2f658b440c35314f52658ea8a740e05b284cdc84dc9ae01e891f21b8933e7cad90602090a16001600160a01b0316918215610170571561013e576001600160a01b031690811561010e57608052600180546001600160a01b03191691909117905560405161099d90816101cb823960805181818160cc015281816101e201526106850152f35b604051630b0f5aa160e11b815260206004820152600760248201526676657374696e6760c81b6044820152606490fd5b604051630b0f5aa160e11b8152602060048201526009602482015268617574686f7269747960b81b6044820152606490fd5b604051630b0f5aa160e11b8152602060048201526005602482015264185cdcd95d60da1b6044820152606490fd5b5f80fd5b634e487b7160e01b5f52604160045260245ffd5b51906001600160a01b038216820361019e5756fe6080806040526004361015610012575f80fd5b5f905f3560e01c90816338d52e0f146106735750806344c63eec1461064b5780636f6ff3bc1461059f5780637a9e5e4b146104ff5780637cf4c01b146101965780638fb3603714610151578063ab2f0e511461009f5763bf7e214f14610076575f80fd5b3461009c578060031936011261009c57546040516001600160a01b039091168152602090f35b80fd5b503461009c578060031936011261009c576040516370a0823160e01b8152306004820152906020826024817f00000000000000000000000000000000000000000000000000000000000000006001600160a01b03165afa908115610145579061010e575b602090604051908152f35b506020813d60201161013d575b81610128602093836106b4565b810103126101395760209051610103565b5f80fd5b3d915061011b565b604051903d90823e3d90fd5b503461009c578060031936011261009c57805460a01c60ff161561018e57506020638fb3603760e01b5b6040516001600160e01b03199091168152f35b60209061017b565b5034610139576020366003190112610139576004356101b536336106ea565b6001546001600160a01b031680156104f05781156104bb576040516370a0823160e01b81523060048201527f0000000000000000000000000000000000000000000000000000000000000000916001600160a01b03831691602081602481865afa908115610348575f91610489575b5084811061046e5750604051636eb1769f60e11b81523060048201526001600160a01b0382166024820152602081604481865afa908115610348575f9161043c575b508061039b575b5050600154604051636eb1769f60e11b81523060048201526001600160a01b03909116602482018190529091602090839060449082905afa918215610348575f92610367575b50838201809211610353576102c792610830565b6001546001600160a01b0316803b15610139575f8091602460405180948193637cf4c01b60e01b83528760048401525af1801561034857610333575b506040519081527ff4349e7e347f0f29eadd49905d352751a7c97e545c924e7e399e4bb0570e478760203392a280f35b6103409192505f906106b4565b5f905f610303565b6040513d5f823e3d90fd5b634e487b7160e01b5f52601160045260245ffd5b9091506020813d602011610393575b81610383602093836106b4565b810103126101395751905f6102b3565b3d9150610376565b604051636eb1769f60e11b81523060048201526001600160a01b0383166024820152602081604481875afa908115610348575f9161040a575b508181106103f157906103ea9291039084610830565b5f8061026d565b8263e570110f60e01b5f5260045260245260445260645ffd5b90506020813d602011610434575b81610425602093836106b4565b8101031261013957515f6103d4565b3d9150610418565b90506020813d602011610466575b81610457602093836106b4565b8101031261013957515f610266565b3d915061044a565b849063db42144d60e01b5f523060045260245260445260645ffd5b90506020813d6020116104b3575b816104a4602093836106b4565b8101031261013957515f610224565b3d9150610497565b60848260405190631533de4360e01b8252604060048301526006604483015265185b5bdd5b9d60d21b60648301526024820152fd5b63051ebe0560e11b5f5260045ffd5b34610139576020366003190112610139576004356001600160a01b03811690818103610139575f54906001600160a01b038216330361058d573b1561057a576001600160a01b03191681175f556040519081527f2f658b440c35314f52658ea8a740e05b284cdc84dc9ae01e891f21b8933e7cad90602090a1005b506361798f2f60e11b5f5260045260245ffd5b62d1953b60e31b5f523360045260245ffd5b34610139576020366003190112610139576004356001600160a01b03811690819003610139576105cf36336106ea565b801561061857600180546001600160a01b0319811683179091556001600160a01b03167f1beaa58c989cfd90048844747a2e509ba5851e73d74d04fc9fa51af192a378be5f80a3005b604051630b0f5aa160e11b815260206004820152600a6024820152696e657756657374696e6760b01b6044820152606490fd5b34610139575f366003190112610139576001546040516001600160a01b039091168152602090f35b34610139575f366003190112610139577f00000000000000000000000000000000000000000000000000000000000000006001600160a01b03168152602090f35b90601f8019910116810190811067ffffffffffffffff8211176106d657604052565b634e487b7160e01b5f52604160045260245ffd5b5f805490926001600160a01b038216929160048210610139575f5f9060405f815196602088019063b700961360e01b825260018060a01b03169788602482015230604482015263ffffffff60e01b83351660648201526064815261074f6084826106b4565b828052826020525190895afa61081d575b1561076e575b505050505050565b63ffffffff161561080b5760ff60a01b1916600160a01b175f55823b15610139576064925f9283604051958680958194634a63ebf760e11b83526004830152604060248301528060448301528084848401378181018301849052601f01601f191681010301925af18015610348576107f8575b50805460ff60a01b191690555f8080808080610766565b61080491505f906106b4565b5f5f6107e1565b8262d1953b60e31b5f5260045260245ffd5b50505f516020518060201c150290610760565b916040519163095ea7b360e01b5f5260018060a01b031691826004528160245260205f60448180885af19060015f5114821615610958575b6040521561087557505050565b60405163095ea7b360e01b5f52826004525f60245260205f60448180885af19060015f5114821615610940575b60405215610922576040519163095ea7b360e01b5f5260045260245260205f60448180865af19060015f5114821615610901575b604052156108e15750565b635274afe760e01b5f9081526001600160a01b0391909116600452602490fd5b90600181151661091957823b15153d151616906108d6565b503d5f823e3d90fd5b635274afe760e01b5f9081526001600160a01b038416600452602490fd5b90600181151661091957843b15153d151616906108a2565b90843b15153d1516169061086856fea26469706673582212205946c26f7d3d732f31abe072892aa2f515cb3ff03f3d70a9c7659f0b76acecbd64736f6c634300081e0033000000000000000000000000972d3dc804ec7cabeab6d394b9a9f4e6c313dda7000000000000000000000000edd1325589d8fc8754c046c37486d0f49262fb190000000000000000000000000811669a91aeac562d11b9219f1eebbcfecf8187",
        "nonce": "0x19",
        "chainId": "0xa4b1"
      },
      "additionalContracts": [],
      "isFixedGasLimit": false
    },
    {
      "hash": "0xff580efa070d758c225a4ee1b263cdb403a187db978e09f960dd40c648cb8762",
      "transactionType": "CALL",
      "contractName": null,
      "contractAddress": "0xedd1325589d8fc8754c046c37486d0f49262fb19",
      "function": "setTargetFunctionRole(address,bytes4[],uint64)",
      "arguments": [
        "0x0811669A91AeaC562D11B9219f1eEBbCfEcf8187",
        "[0x40bee0ed, 0x1c31f710]",
        "0"
      ],
      "transaction": {
        "from": "0xe689f793882a9fbf80b26ee16f530076e0130311",
        "to": "0xedd1325589d8fc8754c046c37486d0f49262fb19",
        "gas": "0xd166",
        "value": "0x0",
        "input": "0x08d6122d0000000000000000000000000811669a91aeac562d11b9219f1eebbcfecf818700000000000000000000000000000000000000000000000000000000000000600000000000000000000000000000000000000000000000000000000000000000000000000000000000000000000000000000000000000000000000000000000240bee0ed000000000000000000000000000000000000000000000000000000001c31f71000000000000000000000000000000000000000000000000000000000",
        "nonce": "0x1a",
        "chainId": "0xa4b1"
      },
      "additionalContracts": [],
      "isFixedGasLimit": false
    },
    {
      "hash": "0x9ed3921b83a24a52ec69203001014e7ee595a6dbff0922f78ebe40f1466d3541",
      "transactionType": "CALL",
      "contractName": null,
      "contractAddress": "0xedd1325589d8fc8754c046c37486d0f49262fb19",
      "function": "setTargetFunctionRole(address,bytes4[],uint64)",
      "arguments": [
        "0x0811669A91AeaC562D11B9219f1eEBbCfEcf8187",
        "[0x7cf4c01b]",
        "6"
      ],
      "transaction": {
        "from": "0xe689f793882a9fbf80b26ee16f530076e0130311",
        "to": "0xedd1325589d8fc8754c046c37486d0f49262fb19",
        "gas": "0x11f6a",
        "value": "0x0",
        "input": "0x08d6122d0000000000000000000000000811669a91aeac562d11b9219f1eebbcfecf81870000000000000000000000000000000000000000000000000000000000000060000000000000000000000000000000000000000000000000000000000000000600000000000000000000000000000000000000000000000000000000000000017cf4c01b00000000000000000000000000000000000000000000000000000000",
        "nonce": "0x1b",
        "chainId": "0xa4b1"
      },
      "additionalContracts": [],
      "isFixedGasLimit": false
    },
    {
      "hash": "0x4bf617aa4e8b01bbde3988ff04779ef740044ae38af074f4e8fb7c89267b5237",
      "transactionType": "CALL",
      "contractName": null,
      "contractAddress": "0xedd1325589d8fc8754c046c37486d0f49262fb19",
      "function": "setTargetFunctionRole(address,bytes4[],uint64)",
      "arguments": [
        "0x5EE929A664Dc1075628838E0fbB34451aAcDeF9E",
        "[0x6f6ff3bc]",
        "0"
      ],
      "transaction": {
        "from": "0xe689f793882a9fbf80b26ee16f530076e0130311",
        "to": "0xedd1325589d8fc8754c046c37486d0f49262fb19",
        "gas": "0xb80e",
        "value": "0x0",
        "input": "0x08d6122d0000000000000000000000005ee929a664dc1075628838e0fbb34451aacdef9e0000000000000000000000000000000000000000000000000000000000000060000000000000000000000000000000000000000000000000000000000000000000000000000000000000000000000000000000000000000000000000000000016f6ff3bc00000000000000000000000000000000000000000000000000000000",
        "nonce": "0x1c",
        "chainId": "0xa4b1"
      },
      "additionalContracts": [],
      "isFixedGasLimit": false
    },
    {
      "hash": "0x3cf00d35089ef81227884ec2ad101d830084585867ab4860cda91f6434a089aa",
      "transactionType": "CALL",
      "contractName": null,
      "contractAddress": "0xedd1325589d8fc8754c046c37486d0f49262fb19",
      "function": "setTargetFunctionRole(address,bytes4[],uint64)",
      "arguments": [
        "0x5EE929A664Dc1075628838E0fbB34451aAcDeF9E",
        "[0x7cf4c01b]",
        "7"
      ],
      "transaction": {
        "from": "0xe689f793882a9fbf80b26ee16f530076e0130311",
        "to": "0xedd1325589d8fc8754c046c37486d0f49262fb19",
        "gas": "0x11f6a",
        "value": "0x0",
        "input": "0x08d6122d0000000000000000000000005ee929a664dc1075628838e0fbb34451aacdef9e0000000000000000000000000000000000000000000000000000000000000060000000000000000000000000000000000000000000000000000000000000000700000000000000000000000000000000000000000000000000000000000000017cf4c01b00000000000000000000000000000000000000000000000000000000",
        "nonce": "0x1d",
        "chainId": "0xa4b1"
      },
      "additionalContracts": [],
      "isFixedGasLimit": false
    },
    {
      "hash": "0x7ec92725801cdcbc255eda14803d36a6aa0ef5aadfcf40d69e47ccfff344aded",
      "transactionType": "CALL",
      "contractName": null,
      "contractAddress": "0xb4134e73fa51a9214a945f6fe3003d1a056ae6d8",
      "function": "setVesting(address)",
      "arguments": [
        "0x0811669A91AeaC562D11B9219f1eEBbCfEcf8187"
      ],
      "transaction": {
        "from": "0xe689f793882a9fbf80b26ee16f530076e0130311",
        "to": "0xb4134e73fa51a9214a945f6fe3003d1a056ae6d8",
        "gas": "0x14f48",
        "value": "0x0",
        "input": "0x6f6ff3bc0000000000000000000000000811669a91aeac562d11b9219f1eebbcfecf8187",
        "nonce": "0x1e",
        "chainId": "0xa4b1"
      },
      "additionalContracts": [],
      "isFixedGasLimit": false
    }
  ],
  "receipts": [
    {
      "status": "0x1",
      "cumulativeGasUsed": "0xbb128",
      "logs": [
        {
          "address": "0x0811669a91aeac562d11b9219f1eebbcfecf8187",
          "topics": [
            "0x2f658b440c35314f52658ea8a740e05b284cdc84dc9ae01e891f21b8933e7cad"
          ],
          "data": "0x000000000000000000000000edd1325589d8fc8754c046c37486d0f49262fb19",
          "blockHash": "0x2b1b93d5faac3f4f9f0e750b82d2cbf02fce2b3318d4f9ef812079ef81869fba",
          "blockNumber": "0x193ffc32",
          "blockTimestamp": "0x697087e0",
          "transactionHash": "0x8dce6fbed8c9cec6aac072f92e76a4b8c3a6d220275f0d9aba89d2105d537c4a",
          "transactionIndex": "0x3",
          "logIndex": "0x2",
          "removed": false
        }
      ],
      "logsBloom": "0x00000000000000000000000000000000000000000000000000000000000000000000000000000000000000000000000000000000000000000000040000000000000000000000000000000000000002000000000000000000000000000000000000000000000000000000000000000000000000000000000000000000000000000000000000000000000000000000000008000000000000000000000000000000000000000000000000000000000000000000000000000000000000000000010000000000000000000000100000000000000000000000000000000000000000000000000000000000000008000000000000000000000000000000000000000000",
      "type": "0x2",
      "transactionHash": "0x8dce6fbed8c9cec6aac072f92e76a4b8c3a6d220275f0d9aba89d2105d537c4a",
      "transactionIndex": "0x3",
      "blockHash": "0x2b1b93d5faac3f4f9f0e750b82d2cbf02fce2b3318d4f9ef812079ef81869fba",
      "blockNumber": "0x193ffc32",
      "gasUsed": "0x95148",
      "effectiveGasPrice": "0x132d2e0",
      "from": "0xe689f793882a9fbf80b26ee16f530076e0130311",
      "to": null,
      "contractAddress": "0x0811669a91aeac562d11b9219f1eebbcfecf8187",
      "gasUsedForL1": "0x0",
      "l1BlockNumber": "0x17282e8",
      "timeboosted": false
    },
    {
      "status": "0x1",
      "cumulativeGasUsed": "0xc352b",
      "logs": [
        {
          "address": "0x5ee929a664dc1075628838e0fbb34451aacdef9e",
          "topics": [
            "0x2f658b440c35314f52658ea8a740e05b284cdc84dc9ae01e891f21b8933e7cad"
          ],
          "data": "0x000000000000000000000000edd1325589d8fc8754c046c37486d0f49262fb19",
          "blockHash": "0x4efb61db185265bef3deb58023f182a2a8fb7ea74c6fefac4693f13e74ae7d17",
          "blockNumber": "0x193ffc3d",
          "blockTimestamp": "0x697087e2",
          "transactionHash": "0x0fa1765c7cac4ecb6f63e59b673523fd94c477241b66998c723a2ef2199c6063",
          "transactionIndex": "0x3",
          "logIndex": "0x4",
          "removed": false
        }
      ],
      "logsBloom": "0x00000000000000000000000000000000000000000000000000000000000000000000000000000000000000000000000000000000000000000000000000000000000000000000000000000000000000000000000000000000000000000000000000000000000000000000000000000000000000000000000000000000000000000000000000000000000000000000000008000000000000000000000000000040000000000000000000000000000000000000000000000000000000000000000008000000000000001000100000000000000000000000000000000000000000000000000000000000000008000000000000000000000000000000000000000000",
      "type": "0x2",
      "transactionHash": "0x0fa1765c7cac4ecb6f63e59b673523fd94c477241b66998c723a2ef2199c6063",
      "transactionIndex": "0x3",
      "blockHash": "0x4efb61db185265bef3deb58023f182a2a8fb7ea74c6fefac4693f13e74ae7d17",
      "blockNumber": "0x193ffc3d",
      "gasUsed": "0x9bd4c",
      "effectiveGasPrice": "0x132abd0",
      "from": "0xe689f793882a9fbf80b26ee16f530076e0130311",
      "to": null,
      "contractAddress": "0x5ee929a664dc1075628838e0fbb34451aacdef9e",
      "gasUsedForL1": "0x0",
      "l1BlockNumber": "0x17282e8",
      "timeboosted": false
    },
    {
      "status": "0x1",
      "cumulativeGasUsed": "0x9fa0",
      "logs": [
        {
          "address": "0xedd1325589d8fc8754c046c37486d0f49262fb19",
          "topics": [
            "0x9ea6790c7dadfd01c9f8b9762b3682607af2c7e79e05a9f9fdf5580dde949151",
            "0x0000000000000000000000000811669a91aeac562d11b9219f1eebbcfecf8187",
            "0x0000000000000000000000000000000000000000000000000000000000000000"
          ],
          "data": "0x40bee0ed00000000000000000000000000000000000000000000000000000000",
          "blockHash": "0x6012e34636d7097ab98886eb403a67804fbe799985f661d2ec453f17022d37bf",
          "blockNumber": "0x193ffc48",
          "blockTimestamp": "0x697087e5",
          "transactionHash": "0xff580efa070d758c225a4ee1b263cdb403a187db978e09f960dd40c648cb8762",
          "transactionIndex": "0x1",
          "logIndex": "0x0",
          "removed": false
        },
        {
          "address": "0xedd1325589d8fc8754c046c37486d0f49262fb19",
          "topics": [
            "0x9ea6790c7dadfd01c9f8b9762b3682607af2c7e79e05a9f9fdf5580dde949151",
            "0x0000000000000000000000000811669a91aeac562d11b9219f1eebbcfecf8187",
            "0x0000000000000000000000000000000000000000000000000000000000000000"
          ],
          "data": "0x1c31f71000000000000000000000000000000000000000000000000000000000",
          "blockHash": "0x6012e34636d7097ab98886eb403a67804fbe799985f661d2ec453f17022d37bf",
          "blockNumber": "0x193ffc48",
          "blockTimestamp": "0x697087e5",
          "transactionHash": "0xff580efa070d758c225a4ee1b263cdb403a187db978e09f960dd40c648cb8762",
          "transactionIndex": "0x1",
          "logIndex": "0x1",
          "removed": false
        }
      ],
      "logsBloom": "0x00000004000080002000000000000000000000000000000000000000000000000000000000000000000000000000000000000000000000000000000000000000000000000000000000000200000000000000000009000000000000000000000000000000020000000000000000000800000000000000000000000000000800000000000000000000000000000000000000000000000000000000000000000000000000000000000000000000000000000000000000000020000000000000000000000000000000000000000000200000000000000000000000000000000020000000000000000000000000000000000000000000000000000000000000000000",
      "type": "0x2",
      "transactionHash": "0xff580efa070d758c225a4ee1b263cdb403a187db978e09f960dd40c648cb8762",
      "transactionIndex": "0x1",
      "blockHash": "0x6012e34636d7097ab98886eb403a67804fbe799985f661d2ec453f17022d37bf",
      "blockNumber": "0x193ffc48",
      "gasUsed": "0x9fa0",
      "effectiveGasPrice": "0x13182f0",
      "from": "0xe689f793882a9fbf80b26ee16f530076e0130311",
      "to": "0xedd1325589d8fc8754c046c37486d0f49262fb19",
      "contractAddress": null,
      "gasUsedForL1": "0x0",
      "l1BlockNumber": "0x17282e8",
      "timeboosted": false
    },
    {
      "status": "0x1",
      "cumulativeGasUsed": "0xd404d",
      "logs": [
        {
          "address": "0xedd1325589d8fc8754c046c37486d0f49262fb19",
          "topics": [
            "0x9ea6790c7dadfd01c9f8b9762b3682607af2c7e79e05a9f9fdf5580dde949151",
            "0x0000000000000000000000000811669a91aeac562d11b9219f1eebbcfecf8187",
            "0x0000000000000000000000000000000000000000000000000000000000000006"
          ],
          "data": "0x7cf4c01b00000000000000000000000000000000000000000000000000000000",
          "blockHash": "0x80dddeac470a33dae8936af4afa982bc54c1bc87f7c0ad85f297449eb65d2da8",
          "blockNumber": "0x193ffc54",
          "blockTimestamp": "0x697087e8",
          "transactionHash": "0x9ed3921b83a24a52ec69203001014e7ee595a6dbff0922f78ebe40f1466d3541",
          "transactionIndex": "0x9",
          "logIndex": "0x12",
          "removed": false
        }
      ],
      "logsBloom": "0x00000004000080002000000000000000000000000000000000000000000000000000000000000000000000000000000000000000000400000000000000000000000000000000000000000200000000000000000009000000000000000000000000000000000000000000000000000000000000000000000000000000000800000000000400000000000000000000000000000000000000000000000000000000000000000000000000000000000000000000000000000020000000080000000000000000000000000000000000200000000000000000000000000000000000000000000000000000000000000000000000000000000000000000000000000000",
      "type": "0x2",
      "transactionHash": "0x9ed3921b83a24a52ec69203001014e7ee595a6dbff0922f78ebe40f1466d3541",
      "transactionIndex": "0x9",
      "blockHash": "0x80dddeac470a33dae8936af4afa982bc54c1bc87f7c0ad85f297449eb65d2da8",
      "blockNumber": "0x193ffc54",
      "gasUsed": "0xd9f3",
      "effectiveGasPrice": "0x1322700",
      "from": "0xe689f793882a9fbf80b26ee16f530076e0130311",
      "to": "0xedd1325589d8fc8754c046c37486d0f49262fb19",
      "contractAddress": null,
      "gasUsedForL1": "0x0",
      "l1BlockNumber": "0x17282e9",
      "timeboosted": false
    },
    {
      "status": "0x1",
      "cumulativeGasUsed": "0x1e1c6",
      "logs": [
        {
          "address": "0xedd1325589d8fc8754c046c37486d0f49262fb19",
          "topics": [
            "0x9ea6790c7dadfd01c9f8b9762b3682607af2c7e79e05a9f9fdf5580dde949151",
            "0x0000000000000000000000005ee929a664dc1075628838e0fbb34451aacdef9e",
            "0x0000000000000000000000000000000000000000000000000000000000000000"
          ],
          "data": "0x6f6ff3bc00000000000000000000000000000000000000000000000000000000",
          "blockHash": "0xdb8349a7e58b085d937cf5289b21eec5d22baa7df52c9ff3239f57819e1428ed",
          "blockNumber": "0x193ffc60",
          "blockTimestamp": "0x697087eb",
          "transactionHash": "0x4bf617aa4e8b01bbde3988ff04779ef740044ae38af074f4e8fb7c89267b5237",
          "transactionIndex": "0x3",
          "logIndex": "0x1",
          "removed": false
        }
      ],
      "logsBloom": "0x00000004000080002000000000000000000000000000000000000000000000000000000000000004000000000000000000000000000000000000000000000000000000000000000000000200000000000000000000000000000000000000000000000000020000000000000000000800000000000000000000000000000002000000000000000000000000000000000000000000000000000000000000000000000000000000000000000000000000000000000000000020000000000000000000000000000000000000000000200000000000000000000000000000000020000000000000000000000000000000000040000000000000000000000000000000",
      "type": "0x2",
      "transactionHash": "0x4bf617aa4e8b01bbde3988ff04779ef740044ae38af074f4e8fb7c89267b5237",
      "transactionIndex": "0x3",
      "blockHash": "0xdb8349a7e58b085d937cf5289b21eec5d22baa7df52c9ff3239f57819e1428ed",
      "blockNumber": "0x193ffc60",
      "gasUsed": "0x8c2b",
      "effectiveGasPrice": "0x1315be0",
      "from": "0xe689f793882a9fbf80b26ee16f530076e0130311",
      "to": "0xedd1325589d8fc8754c046c37486d0f49262fb19",
      "contractAddress": null,
      "gasUsedForL1": "0x0",
      "l1BlockNumber": "0x17282e9",
      "timeboosted": false
    },
    {
      "status": "0x1",
      "cumulativeGasUsed": "0x1615e",
      "logs": [
        {
          "address": "0xedd1325589d8fc8754c046c37486d0f49262fb19",
          "topics": [
            "0x9ea6790c7dadfd01c9f8b9762b3682607af2c7e79e05a9f9fdf5580dde949151",
            "0x0000000000000000000000005ee929a664dc1075628838e0fbb34451aacdef9e",
            "0x0000000000000000000000000000000000000000000000000000000000000007"
          ],
          "data": "0x7cf4c01b00000000000000000000000000000000000000000000000000000000",
          "blockHash": "0xcb13d8e4df2d2022644e998b87fde9a6cfdac2d308d420b728bf607102212089",
          "blockNumber": "0x193ffc68",
          "blockTimestamp": "0x697087ed",
          "transactionHash": "0x3cf00d35089ef81227884ec2ad101d830084585867ab4860cda91f6434a089aa",
          "transactionIndex": "0x2",
          "logIndex": "0x0",
          "removed": false
        }
      ],
      "logsBloom": "0x00000004000080002000000000000000000000000000000000000000000000000000000000000004000000000000000000001000000000000000000000000000000020000000000000000200000000000000000000000000000000000000000000000000000000000000000000000000000000000000000000000000000002000000000000000000000000000000000000000000000000000000000000000000000000000000000000000000000000000000000000000020000000000000000000000000000000000000000000200000000000000000000000000100000000000000000000000000000000000000000040000000000000000000000000000000",
      "type": "0x2",
      "transactionHash": "0x3cf00d35089ef81227884ec2ad101d830084585867ab4860cda91f6434a089aa",
      "transactionIndex": "0x2",
      "blockHash": "0xcb13d8e4df2d2022644e998b87fde9a6cfdac2d308d420b728bf607102212089",
      "blockNumber": "0x193ffc68",
      "gasUsed": "0xd9f3",
      "effectiveGasPrice": "0x13163b0",
      "from": "0xe689f793882a9fbf80b26ee16f530076e0130311",
      "to": "0xedd1325589d8fc8754c046c37486d0f49262fb19",
      "contractAddress": null,
      "gasUsedForL1": "0x0",
      "l1BlockNumber": "0x17282e9",
      "timeboosted": false
    },
    {
      "status": "0x1",
      "cumulativeGasUsed": "0xd986d",
      "logs": [
        {
          "address": "0xb4134e73fa51a9214a945f6fe3003d1a056ae6d8",
          "topics": [
            "0xa596bfd2fd3f8533a574f9df13f553b4d5751c65c233b974b15fa91891857f3e",
            "0x0000000000000000000000000000000000000000000000000000000000000000",
            "0x0000000000000000000000000811669a91aeac562d11b9219f1eebbcfecf8187"
          ],
          "data": "0x",
          "blockHash": "0x71c76670a95fc07ac943981099e668ac16d2dbc8559615cd395c4500cd3fbc10",
          "blockNumber": "0x193ffc72",
          "blockTimestamp": "0x697087f0",
          "transactionHash": "0x7ec92725801cdcbc255eda14803d36a6aa0ef5aadfcf40d69e47ccfff344aded",
          "transactionIndex": "0x2",
          "logIndex": "0x11",
          "removed": false
        }
      ],
      "logsBloom": "0x00000000000000000000000000000000000100000000000000000000000000000000000000000000000000000000000000000000000000000000000000000000000000000000000000000000000000000000000009000000000000000000000000000000020000000000000000000800000000000000000000000000000800000020000000000000012000000000000000000000000000000000000000000000000000000000000000000000000000000000000000000000000010000000000000000000000000000000000000000000000000000000000000000000000420000000000000000000000000000000000000000000000000000000000000000000",
      "type": "0x2",
      "transactionHash": "0x7ec92725801cdcbc255eda14803d36a6aa0ef5aadfcf40d69e47ccfff344aded",
      "transactionIndex": "0x2",
      "blockHash": "0x71c76670a95fc07ac943981099e668ac16d2dbc8559615cd395c4500cd3fbc10",
      "blockNumber": "0x193ffc72",
      "gasUsed": "0xfe9f",
      "effectiveGasPrice": "0x1333870",
      "from": "0xe689f793882a9fbf80b26ee16f530076e0130311",
      "to": "0xb4134e73fa51a9214a945f6fe3003d1a056ae6d8",
      "contractAddress": null,
      "gasUsedForL1": "0x0",
      "l1BlockNumber": "0x17282e9",
      "timeboosted": false
    }
  ],
  "libraries": [],
  "pending": [],
  "returns": {},
  "timestamp": 1768982512543,
  "chain": 42161,
  "commit": "f10e7d9"
}