{
  "transactions": [
    {
      "hash": "0xefdd844314c314a7ba8a87a2be2843c26b03ff9e3fdcf03539be34689374d138",
      "transactionType": "CREATE",
      "contractName": "LinearVestV0",
      "contractAddress": "0x14597110182b60aee908201cce9b86397454279a",
      "function": null,
      "arguments": [
        "0x972d3Dc804ec7CABEAb6D394b9a9f4E6c313dda7",
        "0xedd1325589d8fc8754C046C37486D0f49262Fb19",
        "0xB4134E73fA51a9214a945f6fE3003d1a056AE6d8",
        "86400"
      ],
      "transaction": {
        "from": "0xe689f793882a9fbf80b26ee16f530076e0130311",
        "gas": "0x1be7e6",
        "value": "0x0",
        "input": "0x60a060405234801561000f575f5ffd5b50604051611c90380380611c908339818101604052810190610031919061035e565b826100418161025460201b60201c565b505f73ffffffffffffffffffffffffffffffffffffffff168473ffffffffffffffffffffffffffffffffffffffff16036100b0576040517f161eb5420000000000000000000000000000000000000000000000000000000081526004016100a79061041c565b60405180910390fd5b5f73ffffffffffffffffffffffffffffffffffffffff168373ffffffffffffffffffffffffffffffffffffffff160361011e576040517f161eb54200000000000000000000000000000000000000000000000000000000815260040161011590610484565b60405180910390fd5b5f73ffffffffffffffffffffffffffffffffffffffff168273ffffffffffffffffffffffffffffffffffffffff160361018c576040517f161eb542000000000000000000000000000000000000000000000000000000008152600401610183906104ec565b60405180910390fd5b5f81036101d057806040517f1533de430000000000000000000000000000000000000000000000000000000081526004016101c79190610563565b60405180910390fd5b8373ffffffffffffffffffffffffffffffffffffffff1660808173ffffffffffffffffffffffffffffffffffffffff16815250508160065f6101000a81548173ffffffffffffffffffffffffffffffffffffffff021916908373ffffffffffffffffffffffffffffffffffffffff16021790555080600581905550505050506105b7565b805f5f6101000a81548173ffffffffffffffffffffffffffffffffffffffff021916908373ffffffffffffffffffffffffffffffffffffffff1602179055507f2f658b440c35314f52658ea8a740e05b284cdc84dc9ae01e891f21b8933e7cad816040516102c2919061059e565b60405180910390a150565b5f5ffd5b5f73ffffffffffffffffffffffffffffffffffffffff82169050919050565b5f6102fa826102d1565b9050919050565b61030a816102f0565b8114610314575f5ffd5b50565b5f8151905061032581610301565b92915050565b5f819050919050565b61033d8161032b565b8114610347575f5ffd5b50565b5f8151905061035881610334565b92915050565b5f5f5f5f60808587031215610376576103756102cd565b5b5f61038387828801610317565b945050602061039487828801610317565b93505060406103a587828801610317565b92505060606103b68782880161034a565b91505092959194509250565b5f82825260208201905092915050565b7f61737365740000000000000000000000000000000000000000000000000000005f82015250565b5f6104066005836103c2565b9150610411826103d2565b602082019050919050565b5f6020820190508181035f830152610433816103fa565b9050919050565b7f617574686f7269747900000000000000000000000000000000000000000000005f82015250565b5f61046e6009836103c2565b91506104798261043a565b602082019050919050565b5f6020820190508181035f83015261049b81610462565b9050919050565b7f62656e65666963696172790000000000000000000000000000000000000000005f82015250565b5f6104d6600b836103c2565b91506104e1826104a2565b602082019050919050565b5f6020820190508181035f830152610503816104ca565b9050919050565b7f76657374696e67506572696f64000000000000000000000000000000000000005f82015250565b5f61053e600d836103c2565b91506105498261050a565b602082019050919050565b61055d8161032b565b82525050565b5f6040820190508181035f83015261057a81610532565b90506105896020830184610554565b92915050565b610598816102f0565b82525050565b5f6020820190506105b15f83018461058f565b92915050565b6080516116b36105dd5f395f81816104cd0152818161068a01526108db01526116b35ff3fe608060405234801561000f575f5ffd5b5060043610610129575f3560e01c80637313ee5a116100ab5780639e462fc71161006f5780639e462fc7146102d3578063a598dd4f146102f1578063bf7e214f1461030f578063c3457c1c1461032d578063d950975a1461034b57610129565b80637313ee5a146102415780637a9e5e4b1461025f5780637cf4c01b1461027b5780638edfe678146102975780638fb36037146102b557610129565b806338d52e0f116100f257806338d52e0f146101c157806340bee0ed146101df57806344b1231f146101fb5780635f545e2814610219578063687f26b51461023757610129565b8062728f761461012d5780631c31f7101461014b5780632936fff01461016757806330fd956d1461018557806338af3eed146101a3575b5f5ffd5b610135610369565b6040516101429190611047565b60405180910390f35b610165600480360381019061016091906110be565b61036f565b005b61016f610497565b60405161017c9190611047565b60405180910390f35b61018d6104a0565b60405161019a9190611047565b60405180910390f35b6101ab6104a6565b6040516101b891906110f8565b60405180910390f35b6101c96104cb565b6040516101d6919061116c565b60405180910390f35b6101f960048036038101906101f491906111af565b6104ef565b005b610203610595565b6040516102109190611047565b60405180910390f35b6102216105b0565b60405161022e9190611047565b60405180910390f35b61023f6105b6565b005b610249610741565b6040516102569190611047565b60405180910390f35b610279600480360381019061027491906110be565b610747565b005b610295600480360381019061029091906111af565b610831565b005b61029f610971565b6040516102ac9190611047565b60405180910390f35b6102bd6109c9565b6040516102ca9190611214565b60405180910390f35b6102db6109f4565b6040516102e89190611047565b60405180910390f35b6102f9610a0a565b6040516103069190611047565b60405180910390f35b610317610a3b565b60405161032491906110f8565b60405180910390f35b610335610a62565b6040516103429190611047565b60405180910390f35b610353610a68565b6040516103609190611047565b60405180910390f35b60015481565b61038761037a610a9c565b610382610aa3565b610aaf565b5f73ffffffffffffffffffffffffffffffffffffffff168173ffffffffffffffffffffffffffffffffffffffff16036103f5576040517f161eb5420000000000000000000000000000000000000000000000000000000081526004016103ec90611287565b60405180910390fd5b5f60065f9054906101000a900473ffffffffffffffffffffffffffffffffffffffff1690508160065f6101000a81548173ffffffffffffffffffffffffffffffffffffffff021916908373ffffffffffffffffffffffffffffffffffffffff1602179055507fe72eaf6addaa195f3c83095031dd08f3a96808dcf047babed1fe4e4f69d6c622818360405161048b9291906112a5565b60405180910390a15050565b5f600354905090565b60045481565b60065f9054906101000a900473ffffffffffffffffffffffffffffffffffffffff1681565b7f000000000000000000000000000000000000000000000000000000000000000081565b6105076104fa610a9c565b610502610aa3565b610aaf565b5f810361054b57806040517f1533de430000000000000000000000000000000000000000000000000000000081526004016105429190611316565b60405180910390fd5b5f6005549050816005819055507f2543ef20d7e1e2939d7ba6a2d4f2bc50e3098ccfd274aafcb3f263dc3585f2d78183604051610589929190611342565b60405180910390a15050565b5f61059e610971565b6002546105ab9190611396565b905090565b60025481565b60065f9054906101000a900473ffffffffffffffffffffffffffffffffffffffff1673ffffffffffffffffffffffffffffffffffffffff163373ffffffffffffffffffffffffffffffffffffffff161461063c576040517f9737d53c00000000000000000000000000000000000000000000000000000000815260040160405180910390fd5b5f610645610595565b90505f600281905550426004819055505f8103610662575061073f565b6106ce60065f9054906101000a900473ffffffffffffffffffffffffffffffffffffffff16827f000000000000000000000000000000000000000000000000000000000000000073ffffffffffffffffffffffffffffffffffffffff16610be69092919063ffffffff16565b60065f9054906101000a900473ffffffffffffffffffffffffffffffffffffffff1673ffffffffffffffffffffffffffffffffffffffff167f29ee22ce2103f17737a980405123394a2e5be946614616773adfdb7c9fa7727e826040516107359190611047565b60405180910390a2505b565b60055481565b5f610750610a9c565b905061075a610a3b565b73ffffffffffffffffffffffffffffffffffffffff168173ffffffffffffffffffffffffffffffffffffffff16146107c957806040517f068ca9d80000000000000000000000000000000000000000000000000000000081526004016107c091906110f8565b60405180910390fd5b5f8273ffffffffffffffffffffffffffffffffffffffff163b0361082457816040517fc2f31e5e00000000000000000000000000000000000000000000000000000000815260040161081b91906110f8565b60405180910390fd5b61082d82610c39565b5050565b61084961083c610a9c565b610844610aa3565b610aaf565b5f810361088d57806040517f1533de430000000000000000000000000000000000000000000000000000000081526004016108849190611413565b60405180910390fd5b610895610971565b60025f8282546108a59190611396565b92505081905550806108b5610a68565b6108bf9190611396565b60018190555042600381905550426004819055506109203330837f000000000000000000000000000000000000000000000000000000000000000073ffffffffffffffffffffffffffffffffffffffff16610cb2909392919063ffffffff16565b3373ffffffffffffffffffffffffffffffffffffffff167ff4349e7e347f0f29eadd49905d352751a7c97e545c924e7e399e4bb0570e4787826040516109669190611047565b60405180910390a250565b5f5f60015403610983575f90506109c6565b5f61098c6109f4565b905080600454106109a0575f9150506109c6565b5f6004546109ae4284610d07565b0390506109c1600154826005545f610d1d565b925050505b90565b5f5f60149054906101000a900460ff166109e6575f60e01b6109ef565b638fb3603760e01b5b905090565b5f600554600354610a059190611396565b905090565b5f610a136109f4565b421115610a22575f9050610a38565b42610a2b6109f4565b610a35919061143f565b90505b90565b5f5f5f9054906101000a900473ffffffffffffffffffffffffffffffffffffffff16905090565b60035481565b5f5f610a72610a0a565b90505f8103610a84575f915050610a99565b610a95600154826005546001610d1d565b9150505b90565b5f33905090565b365f5f36915091509091565b5f5f610ae1610abc610a3b565b863087875f90600492610ad19392919061147a565b90610adc91906114ca565b610d6a565b9150915081610bdf575f8163ffffffff161115610ba15760015f60146101000a81548160ff021916908315150217905550610b1a610a3b565b73ffffffffffffffffffffffffffffffffffffffff166394c7d7ee8686866040518463ffffffff1660e01b8152600401610b5693929190611582565b5f604051808303815f87803b158015610b6d575f5ffd5b505af1158015610b7f573d5f5f3e3d5ffd5b505050505f5f60146101000a81548160ff021916908315150217905550610bde565b846040517f068ca9d8000000000000000000000000000000000000000000000000000000008152600401610bd591906110f8565b60405180910390fd5b5b5050505050565b610bf38383836001610dfe565b610c3457826040517f5274afe7000000000000000000000000000000000000000000000000000000008152600401610c2b91906110f8565b60405180910390fd5b505050565b805f5f6101000a81548173ffffffffffffffffffffffffffffffffffffffff021916908373ffffffffffffffffffffffffffffffffffffffff1602179055507f2f658b440c35314f52658ea8a740e05b284cdc84dc9ae01e891f21b8933e7cad81604051610ca791906110f8565b60405180910390a150565b610cc0848484846001610e60565b610d0157836040517f5274afe7000000000000000000000000000000000000000000000000000000008152600401610cf891906110f8565b60405180910390fd5b50505050565b5f610d158284108484610ed1565b905092915050565b5f610d4b610d2a83610eea565b8015610d4657505f8480610d4157610d406115b2565b5b868809115b610f17565b610d56868686610f22565b610d609190611396565b9050949350505050565b5f5f5f858585604051602401610d82939291906115df565b60405160208183030381529060405263b700961360e01b6020820180517bffffffffffffffffffffffffffffffffffffffffffffffffffffffff838183161783525050505090505f5f525f60205260405f8251602084018a5afa15610df4575f51925060205191508160201c15820291505b5094509492505050565b5f5f63a9059cbb60e01b9050604051815f525f1960601c86166004528460245260205f60445f5f8b5af1925060015f51148316610e52578383151615610e46573d5f823e3d81fd5b5f873b113d1516831692505b806040525050949350505050565b5f5f6323b872dd60e01b9050604051815f525f1960601c87166004525f1960601c86166024528460445260205f60645f5f8c5af1925060015f51148316610ebe578383151615610eb2573d5f823e3d81fd5b5f883b113d1516831692505b806040525f606052505095945050505050565b5f610edb84610f17565b82841802821890509392505050565b5f60016002836003811115610f0257610f01611614565b5b610f0c919061164d565b60ff16149050919050565b5f8115159050919050565b5f5f5f610f2f8686611001565b915091505f8203610f5457838181610f4a57610f496115b2565b5b0492505050610ffa565b818411610f7357610f72610f6d5f861460126011610ed1565b61101e565b5b5f8486880990508181118303925080820391505f855f038616905080860495508083049250600181825f0304019050808402831792505f600287600302189050808702600203810290508087026002038102905080870260020381029050808702600203810290508087026002038102905080870260020381029050808402955050505050505b9392505050565b5f5f5f198385098385029150818110828203039250509250929050565b634e487b715f52806020526024601cfd5b5f819050919050565b6110418161102f565b82525050565b5f60208201905061105a5f830184611038565b92915050565b5f5ffd5b5f73ffffffffffffffffffffffffffffffffffffffff82169050919050565b5f61108d82611064565b9050919050565b61109d81611083565b81146110a7575f5ffd5b50565b5f813590506110b881611094565b92915050565b5f602082840312156110d3576110d2611060565b5b5f6110e0848285016110aa565b91505092915050565b6110f281611083565b82525050565b5f60208201905061110b5f8301846110e9565b92915050565b5f819050919050565b5f61113461112f61112a84611064565b611111565b611064565b9050919050565b5f6111458261111a565b9050919050565b5f6111568261113b565b9050919050565b6111668161114c565b82525050565b5f60208201905061117f5f83018461115d565b92915050565b61118e8161102f565b8114611198575f5ffd5b50565b5f813590506111a981611185565b92915050565b5f602082840312156111c4576111c3611060565b5b5f6111d18482850161119b565b91505092915050565b5f7fffffffff0000000000000000000000000000000000000000000000000000000082169050919050565b61120e816111da565b82525050565b5f6020820190506112275f830184611205565b92915050565b5f82825260208201905092915050565b7f62656e65666963696172790000000000000000000000000000000000000000005f82015250565b5f611271600b8361122d565b915061127c8261123d565b602082019050919050565b5f6020820190508181035f83015261129e81611265565b9050919050565b5f6040820190506112b85f8301856110e9565b6112c560208301846110e9565b9392505050565b7f76657374696e67506572696f64000000000000000000000000000000000000005f82015250565b5f611300600d8361122d565b915061130b826112cc565b602082019050919050565b5f6040820190508181035f83015261132d816112f4565b905061133c6020830184611038565b92915050565b5f6040820190506113555f830185611038565b6113626020830184611038565b9392505050565b7f4e487b71000000000000000000000000000000000000000000000000000000005f52601160045260245ffd5b5f6113a08261102f565b91506113ab8361102f565b92508282019050808211156113c3576113c2611369565b5b92915050565b7f616d6f756e7400000000000000000000000000000000000000000000000000005f82015250565b5f6113fd60068361122d565b9150611408826113c9565b602082019050919050565b5f6040820190508181035f83015261142a816113f1565b90506114396020830184611038565b92915050565b5f6114498261102f565b91506114548361102f565b925082820390508181111561146c5761146b611369565b5b92915050565b5f5ffd5b5f5ffd5b5f5f8585111561148d5761148c611472565b5b8386111561149e5761149d611476565b5b6001850283019150848603905094509492505050565b5f82905092915050565b5f82821b905092915050565b5f6114d583836114b4565b826114e081356111da565b925060048210156115205761151b7fffffffff00000000000000000000000000000000000000000000000000000000836004036008026114be565b831692505b505092915050565b5f82825260208201905092915050565b828183375f83830152505050565b5f601f19601f8301169050919050565b5f6115618385611528565b935061156e838584611538565b61157783611546565b840190509392505050565b5f6040820190506115955f8301866110e9565b81810360208301526115a8818486611556565b9050949350505050565b7f4e487b71000000000000000000000000000000000000000000000000000000005f52601260045260245ffd5b5f6060820190506115f25f8301866110e9565b6115ff60208301856110e9565b61160c6040830184611205565b949350505050565b7f4e487b71000000000000000000000000000000000000000000000000000000005f52602160045260245ffd5b5f60ff82169050919050565b5f61165782611641565b915061166283611641565b925082611672576116716115b2565b5b82820690509291505056fea264697066735822122005d9c7b780f17570c67a8ef114c357bb3459d5cad52c50df06d0844c073d6f2364736f6c634300081e0033000000000000000000000000972d3dc804ec7cabeab6d394b9a9f4e6c313dda7000000000000000000000000edd1325589d8fc8754c046c37486d0f49262fb19000000000000000000000000b4134e73fa51a9214a945f6fe3003d1a056ae6d80000000000000000000000000000000000000000000000000000000000015180",
        "nonce": "0x3e",
        "chainId": "0xa4b1"
      },
      "additionalContracts": [],
      "isFixedGasLimit": false
    },
    {
      "hash": "0xad5c797993999c3ae82a5fe0960ef4395dec2ba2d69920e2b3bf28991b8bf81e",
      "transactionType": "CALL",
      "contractName": null,
      "contractAddress": "0xedd1325589d8fc8754c046c37486d0f49262fb19",
      "function": "setTargetFunctionRole(address,bytes4[],uint64)",
      "arguments": [
        "0x14597110182B60AEe908201CCe9b86397454279a",
        "[0x40bee0ed, 0x1c31f710]",
        "0"
      ],
      "transaction": {
        "from": "0xe689f793882a9fbf80b26ee16f530076e0130311",
        "to": "0xedd1325589d8fc8754c046c37486d0f49262fb19",
        "gas": "0xd166",
        "value": "0x0",
        "input": "0x08d6122d00000000000000000000000014597110182b60aee908201cce9b86397454279a00000000000000000000000000000000000000000000000000000000000000600000000000000000000000000000000000000000000000000000000000000000000000000000000000000000000000000000000000000000000000000000000240bee0ed000000000000000000000000000000000000000000000000000000001c31f71000000000000000000000000000000000000000000000000000000000",
        "nonce": "0x3f",
        "chainId": "0xa4b1"
      },
      "additionalContracts": [],
      "isFixedGasLimit": false
    },
    {
      "hash": "0x530b9d46f171e1f9eef11c720945ca932f1f4aa3cfc524679008b9e71d71e386",
      "transactionType": "CALL",
      "contractName": null,
      "contractAddress": "0xedd1325589d8fc8754c046c37486d0f49262fb19",
      "function": "setTargetFunctionRole(address,bytes4[],uint64)",
      "arguments": [
        "0x14597110182B60AEe908201CCe9b86397454279a",
        "[0x7cf4c01b]",
        "6"
      ],
      "transaction": {
        "from": "0xe689f793882a9fbf80b26ee16f530076e0130311",
        "to": "0xedd1325589d8fc8754c046c37486d0f49262fb19",
        "gas": "0x11f6a",
        "value": "0x0",
        "input": "0x08d6122d00000000000000000000000014597110182b60aee908201cce9b86397454279a0000000000000000000000000000000000000000000000000000000000000060000000000000000000000000000000000000000000000000000000000000000600000000000000000000000000000000000000000000000000000000000000017cf4c01b00000000000000000000000000000000000000000000000000000000",
        "nonce": "0x40",
        "chainId": "0xa4b1"
      },
      "additionalContracts": [],
      "isFixedGasLimit": false
    },
    {
      "hash": "0x614a2fd5e72f5b941afe78dbb313150109af79592c313e91a9f0afa4edf05039",
      "transactionType": "CALL",
      "contractName": null,
      "contractAddress": "0xb4134e73fa51a9214a945f6fe3003d1a056ae6d8",
      "function": "setVesting(address)",
      "arguments": [
        "0x14597110182B60AEe908201CCe9b86397454279a"
      ],
      "transaction": {
        "from": "0xe689f793882a9fbf80b26ee16f530076e0130311",
        "to": "0xb4134e73fa51a9214a945f6fe3003d1a056ae6d8",
        "gas": "0xf621",
        "value": "0x0",
        "input": "0x6f6ff3bc00000000000000000000000014597110182b60aee908201cce9b86397454279a",
        "nonce": "0x41",
        "chainId": "0xa4b1"
      },
      "additionalContracts": [],
      "isFixedGasLimit": false
    },
    {
      "hash": "0xe054cbe5b876fafef92413d81055189829f718202f5058e80ff75ec653e80b27",
      "transactionType": "CALL",
      "contractName": null,
      "contractAddress": "0x5ee929a664dc1075628838e0fbb34451aacdef9e",
      "function": "setVesting(address)",
      "arguments": [
        "0x14597110182B60AEe908201CCe9b86397454279a"
      ],
      "transaction": {
        "from": "0xe689f793882a9fbf80b26ee16f530076e0130311",
        "to": "0x5ee929a664dc1075628838e0fbb34451aacdef9e",
        "gas": "0xdb05",
        "value": "0x0",
        "input": "0x6f6ff3bc00000000000000000000000014597110182b60aee908201cce9b86397454279a",
        "nonce": "0x42",
        "chainId": "0xa4b1"
      },
      "additionalContracts": [],
      "isFixedGasLimit": false
    }
  ],
  "receipts": [
    {
      "status": "0x1",
      "cumulativeGasUsed": "0x1c08db",
      "logs": [
        {
          "address": "0x14597110182b60aee908201cce9b86397454279a",
          "topics": [
            "0x2f658b440c35314f52658ea8a740e05b284cdc84dc9ae01e891f21b8933e7cad"
          ],
          "data": "0x000000000000000000000000edd1325589d8fc8754c046c37486d0f49262fb19",
          "blockHash": "0x4339f2cfce7ce0bd3be8da897925f6684b807ec5548af623b4d7751d560de89f",
          "blockNumber": "0x197f8a7a",
          "blockTimestamp": "0x698064aa",
          "transactionHash": "0xefdd844314c314a7ba8a87a2be2843c26b03ff9e3fdcf03539be34689374d138",
          "transactionIndex": "0x8",
          "logIndex": "0x4",
          "removed": false
        }
      ],
      "logsBloom": "0x00000000000000000000000000000000000000000000000000000000000000000000000000000000000000000000000000000000000000000000000001000000000000000000000000000000000000000000000000000000000000000000000008000000000000000800000000000000000000000000000000000000000000000000000000000000000000000000000008000000000000000000000000000000000000000000000000000000000000000000000000000000000000000000000000000000000000000000100000000000000000000000000000000000000000000000000000000000000008000000000000000000000000000000000000000000",
      "type": "0x2",
      "transactionHash": "0xefdd844314c314a7ba8a87a2be2843c26b03ff9e3fdcf03539be34689374d138",
      "transactionIndex": "0x8",
      "blockHash": "0x4339f2cfce7ce0bd3be8da897925f6684b807ec5548af623b4d7751d560de89f",
      "blockNumber": "0x197f8a7a",
      "gasUsed": "0x154784",
      "effectiveGasPrice": "0x1333870",
      "from": "0xe689f793882a9fbf80b26ee16f530076e0130311",
      "to": null,
      "contractAddress": "0x14597110182b60aee908201cce9b86397454279a",
      "gasUsedForL1": "0x0",
      "l1BlockNumber": "0x173d3cb",
      "timeboosted": false
    },
    {
      "status": "0x1",
      "cumulativeGasUsed": "0x499a6",
      "logs": [
        {
          "address": "0xedd1325589d8fc8754c046c37486d0f49262fb19",
          "topics": [
            "0x9ea6790c7dadfd01c9f8b9762b3682607af2c7e79e05a9f9fdf5580dde949151",
            "0x00000000000000000000000014597110182b60aee908201cce9b86397454279a",
            "0x0000000000000000000000000000000000000000000000000000000000000000"
          ],
          "data": "0x40bee0ed00000000000000000000000000000000000000000000000000000000",
          "blockHash": "0xbe000d06dd641c8c2973ada8ffc877113772ce176d8491b16b671a40b1630e12",
          "blockNumber": "0x197f8a84",
          "blockTimestamp": "0x698064ad",
          "transactionHash": "0xad5c797993999c3ae82a5fe0960ef4395dec2ba2d69920e2b3bf28991b8bf81e",
          "transactionIndex": "0x6",
          "logIndex": "0x2",
          "removed": false
        },
        {
          "address": "0xedd1325589d8fc8754c046c37486d0f49262fb19",
          "topics": [
            "0x9ea6790c7dadfd01c9f8b9762b3682607af2c7e79e05a9f9fdf5580dde949151",
            "0x00000000000000000000000014597110182b60aee908201cce9b86397454279a",
            "0x0000000000000000000000000000000000000000000000000000000000000000"
          ],
          "data": "0x1c31f71000000000000000000000000000000000000000000000000000000000",
          "blockHash": "0xbe000d06dd641c8c2973ada8ffc877113772ce176d8491b16b671a40b1630e12",
          "blockNumber": "0x197f8a84",
          "blockTimestamp": "0x698064ad",
          "transactionHash": "0xad5c797993999c3ae82a5fe0960ef4395dec2ba2d69920e2b3bf28991b8bf81e",
          "transactionIndex": "0x6",
          "logIndex": "0x3",
          "removed": false
        }
      ],
      "logsBloom": "0x00000004000080002000000000000000000000000000000000000000000000000000000000000000000000000000000000000000000000000000000000000000000000000000000000000200000000000000000000000000000000000000000000000000020000000000000000000800000000000000000000000000000000000000000000000000000000000000000000000000080000000000000000000000000000000000000000000000000000000000000200000020000000000000000000000000000000000000000000200000000000000000000000000000000020000000000000000000000000000000000000000000000000002000000000000000",
      "type": "0x2",
      "transactionHash": "0xad5c797993999c3ae82a5fe0960ef4395dec2ba2d69920e2b3bf28991b8bf81e",
      "transactionIndex": "0x6",
      "blockHash": "0xbe000d06dd641c8c2973ada8ffc877113772ce176d8491b16b671a40b1630e12",
      "blockNumber": "0x197f8a84",
      "gasUsed": "0x9fa0",
      "effectiveGasPrice": "0x1312d00",
      "from": "0xe689f793882a9fbf80b26ee16f530076e0130311",
      "to": "0xedd1325589d8fc8754c046c37486d0f49262fb19",
      "contractAddress": null,
      "gasUsedForL1": "0x0",
      "l1BlockNumber": "0x173d3cb",
      "timeboosted": false
    },
    {
      "status": "0x1",
      "cumulativeGasUsed": "0x602c9",
      "logs": [
        {
          "address": "0xedd1325589d8fc8754c046c37486d0f49262fb19",
          "topics": [
            "0x9ea6790c7dadfd01c9f8b9762b3682607af2c7e79e05a9f9fdf5580dde949151",
            "0x00000000000000000000000014597110182b60aee908201cce9b86397454279a",
            "0x0000000000000000000000000000000000000000000000000000000000000006"
          ],
          "data": "0x7cf4c01b00000000000000000000000000000000000000000000000000000000",
          "blockHash": "0xc9034da53a22fcd7d76910e8622db4e0075a9b5db1b4922c57dc3fd39e5877de",
          "blockNumber": "0x197f8a8e",
          "blockTimestamp": "0x698064af",
          "transactionHash": "0x530b9d46f171e1f9eef11c720945ca932f1f4aa3cfc524679008b9e71d71e386",
          "transactionIndex": "0x7",
          "logIndex": "0x2",
          "removed": false
        }
      ],
      "logsBloom": "0x00000004000080002000000000000000000000000000000000000000000000000000000000000000000000000000000000000000000400000000000000000000000000000000000000000200000000000000000000000000000000000000000000000000000000000000000000000000000000000000000000000000000000000000000400000000000000000000000000000000080000000000000000000000000000000000000000000000000000000000000200000020000000080000000000000000000000000000000000200000000000000000000000000000000000000000000000000000000000000000000000000000000000002000000000000000",
      "type": "0x2",
      "transactionHash": "0x530b9d46f171e1f9eef11c720945ca932f1f4aa3cfc524679008b9e71d71e386",
      "transactionIndex": "0x7",
      "blockHash": "0xc9034da53a22fcd7d76910e8622db4e0075a9b5db1b4922c57dc3fd39e5877de",
      "blockNumber": "0x197f8a8e",
      "gasUsed": "0xd9f3",
      "effectiveGasPrice": "0x13207c0",
      "from": "0xe689f793882a9fbf80b26ee16f530076e0130311",
      "to": "0xedd1325589d8fc8754c046c37486d0f49262fb19",
      "contractAddress": null,
      "gasUsedForL1": "0x0",
      "l1BlockNumber": "0x173d3cb",
      "timeboosted": false
    },
    {
      "status": "0x1",
      "cumulativeGasUsed": "0x3ccc8",
      "logs": [
        {
          "address": "0xb4134e73fa51a9214a945f6fe3003d1a056ae6d8",
          "topics": [
            "0xa596bfd2fd3f8533a574f9df13f553b4d5751c65c233b974b15fa91891857f3e",
            "0x0000000000000000000000000811669a91aeac562d11b9219f1eebbcfecf8187",
            "0x00000000000000000000000014597110182b60aee908201cce9b86397454279a"
          ],
          "data": "0x",
          "blockHash": "0xe1dc2b4c856c30575f75add935eef21aa3209ff377ef424df5dc24fcd05c5ba2",
          "blockNumber": "0x197f8a98",
          "blockTimestamp": "0x698064b2",
          "transactionHash": "0x614a2fd5e72f5b941afe78dbb313150109af79592c313e91a9f0afa4edf05039",
          "transactionIndex": "0x5",
          "logIndex": "0x1",
          "removed": false
        }
      ],
      "logsBloom": "0x00000000000000000000000000000000000100000000000000000000000000000000000000000000000000000000000000000000000000000000000000000000000000000000000000000000000000000000000009000000000000000000000000000000000000000000000000000000000000000000000000000000000800000020000000000000012000000000000000000000080000000000000000000000000000000000000000000000000000000000000200000000000010000000000000000000000000000000000000000000000000000000000000000000000400000000000000000000000000000000000000000000000000002000000000000000",
      "type": "0x2",
      "transactionHash": "0x614a2fd5e72f5b941afe78dbb313150109af79592c313e91a9f0afa4edf05039",
      "transactionIndex": "0x5",
      "blockHash": "0xe1dc2b4c856c30575f75add935eef21aa3209ff377ef424df5dc24fcd05c5ba2",
      "blockNumber": "0x197f8a98",
      "gasUsed": "0xbbd3",
      "effectiveGasPrice": "0x1312d00",
      "from": "0xe689f793882a9fbf80b26ee16f530076e0130311",
      "to": "0xb4134e73fa51a9214a945f6fe3003d1a056ae6d8",
      "contractAddress": null,
      "gasUsedForL1": "0x0",
      "l1BlockNumber": "0x173d3cb",
      "timeboosted": false
    },
    {
      "status": "0x1",
      "cumulativeGasUsed": "0x10c70d",
      "logs": [
        {
          "address": "0x5ee929a664dc1075628838e0fbb34451aacdef9e",
          "topics": [
            "0x1beaa58c989cfd90048844747a2e509ba5851e73d74d04fc9fa51af192a378be",
            "0x0000000000000000000000000811669a91aeac562d11b9219f1eebbcfecf8187",
            "0x00000000000000000000000014597110182b60aee908201cce9b86397454279a"
          ],
          "data": "0x",
          "blockHash": "0x4dd695723350d2833f1e249a0172ceb2da076a425f5233062ce50f07903fe7d6",
          "blockNumber": "0x197f8aa2",
          "blockTimestamp": "0x698064b4",
          "transactionHash": "0xe054cbe5b876fafef92413d81055189829f718202f5058e80ff75ec653e80b27",
          "transactionIndex": "0x7",
          "logIndex": "0x11",
          "removed": false
        }
      ],
      "logsBloom": "0x00000000000000000000000000000000000000000000000000000000000000000000000000000000000000000000000000000000000000000000000000000000000000000000000000000000000000000000000009000000000000000000000000000000000000000000000000000000000000001000000000000000000800000000000000000000000000000000000000000000080000000000000000000040000000000000000000000000000000000000000200000000000000000000000008000000000000001000000000000000000000000000000000000000000004000000000000000000000000000000000000000000000000002000000000001000",
      "type": "0x2",
      "transactionHash": "0xe054cbe5b876fafef92413d81055189829f718202f5058e80ff75ec653e80b27",
      "transactionIndex": "0x7",
      "blockHash": "0x4dd695723350d2833f1e249a0172ceb2da076a425f5233062ce50f07903fe7d6",
      "blockNumber": "0x197f8aa2",
      "gasUsed": "0xa702",
      "effectiveGasPrice": "0x1334810",
      "from": "0xe689f793882a9fbf80b26ee16f530076e0130311",
      "to": "0x5ee929a664dc1075628838e0fbb34451aacdef9e",
      "contractAddress": null,
      "gasUsedForL1": "0x0",
      "l1BlockNumber": "0x173d3cb",
      "timeboosted": false
    }
  ],
  "libraries": [],
  "pending": [],
  "returns": {},
  "timestamp": 1770022069253,
  "chain": 42161,
  "commit": "4582aec"
}